:060000000A128A11F32F21
:100A1A0064008001840A04060319003404060E2DBA
:100A2A00831203130C1010140C1C1C2D1D2D192DD0
:100A3A0010100800F3007308F20002300310F20DE0
:100A4A00FF3E031D232D0310720DC13E83120313B3
:100A5A009F00FF308F00F7308E000A128A11152589
:100A6A000A128A11831203131F151F193D2D3E2DD9
:100A7A003A2D1E08F100831603131E08F000080021
:100A8A000030FC000030FB000030FA000030F900B2
:100A9A00701C502D512D682D7408F9077508031123
:100AAA000318013E03195A2DFA0776080311031891
:100ABA00013E0319612DFB07770803110318013E54
:100ACA000319682DFC070130F8000310F40DF50D29
:100ADA00F60DF70DF80B6A2D01300310F30CF20C2A
:100AEA00F10CF00CFF3E031D722D730872047104A1
:100AFA007004031D812D822D4D2D7C08F3007B0887
:100B0A00F2007A08F1007908F000080080308312B8
:100B1A00031387008030831603138700811385111E
:100B2A00051285129F170030831203139C007D3033
:100B3A009B000F309D04003096007D3095000F30E9
:100B4A0097041208FC3901389200FA30831603130D
:100B5A009200831203131208873920389200121563
:100B6A00B7010609C7004708BE000310871F031410
:100B7A00BE13031CC12DBE17831203133E08C70000
:100B8A004708CA00B5014A08C7003508203E840054
:100B9A004708831380000130C7004708B5070830AB
:100BAA003502031CD92DDA2DC82D4A08C70047087B
:100BBA00BD00BB01BC016400831203138C1CE62D2B
:100BCA00E72DE02D8C100130C7004708B607073023
:100BDA00C7004708B6050609C7004708BE00031044
:100BEA00871F0314BE13031CFB2DBE1783120313A6
:100BFA003E08C7003608203E840047088313800059
:100C0A00FF30C7004708B900B801B5013508203ED2
:100C1A0084000008C7004708B9053508203E84004B
:100C2A000008C7004708B8040130C7004708B507DD
:100C3A0008303502031C222E232E0B2E38084A05B3
:100C4A00C7004A0939054704C8004808BD003D09DC
:100C5A004A053B04C7004708BB004A093D053C0456
:100C6A00C7004708BC003D08C7004708CA00BC1FA8
:100C7A003F2E402E4D2EBC130713871207108711E3
:100C8A008511051285160A30C7004708B700E02DFE
:100C9A003C1C502E512E5D2E3C103A080319562E3C
:100CAA00582E0130592E0030C7004708BA00E02DEF
:100CBA003A080319612E622EC12F341F652E692E40
:100CCA008312031385156C2E8312031385110130C9
:100CDA00C7004708B4070713871207108711E02DCA
:100CEA008516851105123D1E7B2E7C2EEF2F1430A2
:100CFA00C7004708B700E02D851685113C0EC700CE
:100D0A00470C0139C8003D0E0139C9000310BD1C4A
:100D1A000314003003180130490548050319962EBB
:100D2A00972EEF2FBC1207171E30C7004708B700CF
:100D3A00E02D8512851507173D1AA42EA52EEF2F33
:100D4A002830C7004708B7008716E02D8515071712
:100D5A008716BD1DB12EB22EEF2F87123230C70073
:100D6A004708B700E02D85153D1DBC2EBD2EEF2F7F
:100D7A0007130030B3000030B2000030B100003079
:100D8A00B000B4013430C7004708B700E02D85151C
:100D9A00341FD02ED42E831203130516D72E831296
:100DAA00031305120130C7004708B40700300A12BE
:100DBA008A111F250A128A11710883120313C200AD
:100DCA007008C1004108F0004208F100F201F30185
:100DDA000030F7000030F6000130F5005F30F40013
:100DEA000A128A1145250A128A11730883120313FB
:100DFA00AF007208AE007108AD007008AC002F0891
:100E0A003302031D122F2E083202031D122F2D0842
:100E1A003102031D122F2C083002031C152F162F26
:100E2A001D2F071705123C30C7004708B700E02DF1
:100E3A000530B007003003180130B107003003183D
:100E4A000130B207003003180130B307E02D8515D1
:100E5A0007173D19312F322FEF2F07144630C700DD
:100E6A004708B700E02D85150714BD1C3D2F3E2FFE
:100E7A00EF2F0710071387150030B3000030B200B8
:100E8A000030B1000030B000B4015030C70047084C
:100E9A00B700E02D85158715341F542F582F83125C
:100EAA00031305165B2F8312031305120130C700C3
:100EBA004708B40701300A128A111F250A128A113B
:100ECA00710883120313C0007008BF003F08F000C6
:100EDA004008F100F201F3010030F7000030F6009B
:100EEA000130F5005F30F4000A128A1145250A1212
:100EFA008A11730883120313AB007208AA007108DF
:100F0A00A9007008A8002B083302031D962F2A088F
:100F1A003202031D962F29083102031D962F280835
:100F2A003002031C992F9A2F1D2F871105125A3050
:100F3A00C7004708B700E02D8515BD18A52FA62FB5
:100F4A00EF2F6430C7004708B700E02D8511341F22
:100F5A00AF2FB32F831203138516B62F83120313F1
:100F6A0085120130C7004708B4073D1EBD2FBE2FAA
:100F7A00EF2F7C2E8516E02D3708C700C8014808D8
:100F8A00003A0319C92FBF2F4708003A0319482E00
:100F9A000A3A0319752E1E3A0319812E0A3A0319C1
:100FAA009E2E363A0319AB2E1A3A0319B82E063A70
:100FBA000319CC2E083A03192C2F7A3A0319382F21
:100FCA00163A03194F2F0A3A0319A12F3E3A031969
:100FDA00AB2FBF2FE02D0A128A110028831320306D
:100FEA00840043300A128A110D250A128A118301DC
:060FFA000A128A118B2D82
:08400000FF3FFF3FFF3FFF3FC0
:02400E00753DFE
:00000001FF
