:060000000A128A11F22F22
:100A180064008001840A04060319003404060D2DBD
:100A2800831203130C1010140C1C1B2D1C2D182DD5
:100A380010100800F3007308F20002300310F20DE2
:100A4800FF3E031D222D0310720DC13883120313BC
:100A58009F00FF308F00F7308E000A128A1114258C
:100A68000A128A11831203131F151F193C2D3D2DDD
:100A7800392D1E08F100831603131E08F000080024
:100A88000030FC000030FB000030FA000030F900B4
:100A9800701C4F2D502D672D7408F9077508031128
:100AA8000318013E0319592DFA0776080311031894
:100AB800013E0319602DFB07770803110318013E57
:100AC8000319672DFC070130F8000310F40DF50D2C
:100AD800F60DF70DF80B692D01300310F30CF20C2D
:100AE800F10CF00CFF3E031D712D730872047104A4
:100AF8007004031D802D812D4C2D7C08F3007B088C
:100B0800F2007A08F1007908F000080080308312BA
:100B18000313870080308316031387008113851120
:100B2800051285129F170030831203139C007D3035
:100B38009B000F309D04003096007D3095000F30EB
:100B480097041208FC3901389200FA30831603130F
:100B58009200831203131208873920389200121565
:100B6800B7010609C7004708BE000310871F031412
:100B7800BE13031CC02DBE17831203133E08C70003
:100B88004708CA00B5014A08C7003508203E840056
:100B98004708831380000130C7004708B5070830AD
:100BA8003502031CD82DD92DC72D4A08C700470880
:100BB800BD00BB01BC016400831203138C1CE52D2E
:100BC800E62DDF2D8C100130C7004708B607073027
:100BD800C7004708B6050609C7004708BE00031046
:100BE800871F0314BE13031CFA2DBE1783120313A9
:100BF8003E08C7003608203E84004708831380005B
:100C0800FF30C7004708B900B801B5013508203ED4
:100C180084000008C7004708B9053508203E84004D
:100C28000008C7004708B8040130C7004708B507DF
:100C380008303502031C212E222E0A2E38084A05B8
:100C4800C7004A0939054704C8004808BD003D09DE
:100C58004A053B04C7004708BB004A093D053C0458
:100C6800C7004708BC003D08C7004708CA00BC1FAA
:100C78003E2E3F2E4C2EBC130713871207108711E8
:100C88008511051285160A30C7004708B700DF2D01
:100C98003C1C4F2E502E5C2E3C103A080319552E42
:100CA800572E0130582E0030C7004708BA00DF2DF4
:100CB8003A080319602E612EC02F341F642E682E47
:100CC8008312031385156B2E8312031385110130CC
:100CD800C7004708B4070713871207108711DF2DCD
:100CE8008516851105123D1E7A2E7B2EEE2F1430A7
:100CF800C7004708B700DF2D851685113C0EC700D1
:100D0800470C0139C8003D0E0139C9000310BD1C4C
:100D18000314003003180130490548050319952EBE
:100D2800962EEE2FBC1207171E30C7004708B700D3
:100D3800DF2D8512851507173D1AA32EA42EEE2F39
:100D48002830C7004708B7008716DF2D8515071715
:100D58008716BD1DB02EB12EEE2F87123230C70078
:100D68004708B700DF2D85153D1DBB2EBC2EEE2F85
:100D780007130030B3000030B2000030B10000307B
:100D8800B000B4013430C7004708B700DF2D85151F
:100D9800341FCF2ED32E831203130516D62E83129B
:100DA800031305120130C7004708B40700300A12C0
:100DB8008A111E250A128A11710883120313C200B0
:100DC8007008C1004108F0004208F100F201F30187
:100DD8000030F7000030F6000130F5005F30F40015
:100DE8000A128A1144250A128A11730883120313FE
:100DF800AF007208AE007108AD007008AC002F0893
:100E08003302031D112F2E083202031D112F2D0846
:100E18003102031D112F2C083002031C142F152F2B
:100E28001C2F071705123C30C7004708B700DF2DF5
:100E38000530B007003003180130B107003003183F
:100E48000130B207003003180130B307DF2D8515D4
:100E580007173D19302F312FEE2F07144630C700E2
:100E68004708B700DF2D85150714BD1C3C2F3D2F03
:100E7800EE2F0710071387150030B3000030B200BB
:100E88000030B1000030B000B4015030C70047084E
:100E9800B700DF2D85158715341F532F572F831261
:100EA800031305165A2F8312031305120130C700C6
:100EB8004708B40701300A128A111E250A128A113E
:100EC800710883120313C0007008BF003F08F000C8
:100ED8004008F100F201F3010030F7000030F6009D
:100EE8000130F5005F30F4000A128A1144250A1215
:100EF8008A11730883120313AB007208AA007108E1
:100F0800A9007008A8002B083302031D952F2A0892
:100F18003202031D952F29083102031D952F280839
:100F28003002031C982F992F1C2F871105125A3055
:100F3800C7004708B700DF2D8515BD18A42FA52FBA
:100F4800EE2F6430C7004708B700DF2D8511341F26
:100F5800AE2FB22F831203138516B52F83120313F6
:100F680085120130C7004708B4073D1EBC2FBD2FAE
:100F7800EE2F7B2E8516DF2D3708C700C8014808DD
:100F8800003A0319C82FBE2F4708003A0319472E05
:100F98000A3A0319742E1E3A0319802E0A3A0319C5
:100FA8009D2E363A0319AA2E1A3A0319B72E063A75
:100FB8000319CB2E083A03192B2F7A3A0319372F26
:100FC800163A03194E2F0A3A0319A02F3E3A03196D
:100FD800AA2FBE2FDF2D0A128A110028FD018313C4
:100FE8002030840043300A128A110C250A128A1113
:080FF80083010A128A118A2DFF
:08400000FF3FFF3FFF3FFF3FC0
:02400E00FD3F74
:00000001FF
