:060000000A128A11F22F22
:100A9A0064008001840A04060319003404064E2DFA
:100AAA00831203130C1010140C1C5C2D5D2D592D90
:100ABA0010100800F3007308F20002300310F20D60
:100ACA00FF3E031D632D0310720DC13883120313F9
:100ADA009F00FF308F00F7308E000A128A115525C9
:100AEA000A128A11831203131F151F197D2D7E2DD9
:100AFA007A2D1E08F100831603131E08F000080061
:100B0A000030FC000030FB000030FA000030F90031
:100B1A00701C902D912DA82D7408F90775080311E2
:100B2A000318013E03199A2DFA07760803110318D0
:100B3A00013E0319A12DFB07770803110318013E93
:100B4A000319A82DFC070130F8000310F40DF50D68
:100B5A00F60DF70DF80BAA2D01300310F30CF20C69
:100B6A00F10CF00CFF3E031DB22D730872047104E0
:100B7A007004031DC12DC22D8D2D7C08F3007B0846
:100B8A00F2007A08F1007908F000080083120313D2
:100B9A00870180308316031387008113851105129C
:100BAA0085129F170030831203139C007D309B002F
:100BBA000F309D04003096007D3095000F30970469
:100BCA001208FC3901389200FA3083160313920096
:100BDA008312031312088739203892001215B701BD
:100BEA000609C6004608BD000310871F0314BD137B
:100BFA00031C002EBD17831203133D08C6004608C6
:100C0A00C900B5014908C6003508203E84004608D7
:100C1A00831380000130C6004608B5070830350244
:100C2A00031C182E192E072E4908C6004608BC00B8
:100C3A00BA01BB016400831203138C1C252E262ED5
:100C4A001F2E8C100130C6004608B6070730C600B2
:100C5A004608B6050609C6004608BD000310871FE8
:100C6A000314BD13031C3A2EBD17831203133D0848
:100C7A00C6003608203E8400460883138000FF30F1
:100C8A00C6004608B900B801B5013508203E8400FF
:100C9A000008C6004608B9053508203E8400000849
:100CAA00C6004608B8040130C6004608B507083031
:100CBA003502031C612E622E4A2E38084905C600E9
:100CCA00490939054604C7004708BC003C094905DB
:100CDA003A04C6004608BA0049093C053B04C60066
:100CEA004608BB003C08C6004608C900C02F851646
:100CFA000A30C6004608B7001F2E3C1E852E862ED7
:100D0A00EE2F1430C6004608B7001F2E85163B0E7C
:100D1A00C600460C0139C7003C0E0139C800031051
:100D2A00BC1C031400300318013048054705031999
:100D3A009F2EA02EEE2FBB1207171E30C6004608A4
:100D4A00B7001F2E851507173C1AAC2EAD2EEE2FB5
:100D5A002830C6004608B70087161F2E07178716C1
:100D6A00BC1DB82EB92EEE2F87123230C6004608A7
:100D7A00B7001F2E3C1DC22EC32EEE2F07130030C4
:100D8A00B3000030B2000030B1000030B00034309F
:100D9A00C6004608B7001F2E341FD42ED82E831241
:100DAA0003130516DB2E8312031305120130C60046
:100DBA004608B40700300A128A115F250A128A11FE
:100DCA00710883120313C1007008C0004008F000C4
:100DDA004108F100F201F3010030F7000030F6009B
:100DEA000130F5005F30F4000A128A1185250A12D3
:100DFA008A11730883120313AF007208AE007108D8
:100E0A00AD007008AC002F083302031D162F2E0800
:100E1A003202031D162F2D083102031D162F2C082E
:100E2A003002031C192F1A2F212F071705123C30E5
:100E3A00C6004608B7001F2E0530B0070030031859
:100E4A000130B107003003180130B207003003182F
:100E5A000130B3071F2E07173C19342F352FEE2FF9
:100E6A0007144630C6004608B7001F2E0714BC1CDC
:100E7A003F2F402FEE2F0710071387150030B300BE
:100E8A000030B2000030B1000030B0005030C6006F
:100E9A004608B7001F2E8715341F542F582F831268
:100EAA00031305165B2F8312031305120130C600C4
:100EBA004608B40701300A128A115F250A128A11FC
:100ECA00710883120313BF007008BE003E08F000C9
:100EDA003F08F100F201F3010030F7000030F6009C
:100EEA000130F5005F30F4000A128A1185250A12D2
:100EFA008A11730883120313AB007208AA007108DF
:100F0A00A9007008A8002B083302031D962F2A088F
:100F1A003202031D962F29083102031D962F280835
:100F2A003002031C992F9A2F212F871105125A304C
:100F3A00C6004608B7001F2EBC18A42FA52FEE2FF7
:100F4A0085116430C6004608B7001F2E341FAE2F25
:100F5A00B22F831203138516B52F8312031385123A
:100F6A000130C6004608B4073C1EBC2FBD2FEE2F29
:100F7A00862E85161F2E3708C600C7014708003A75
:100F8A000319C82FBE2F4608003A03197C2E0A3AC5
:100F9A000319822E1E3A03198B2E0A3A0319A72E19
:100FAA00363A0319B32E1A3A0319BF2E063A031911
:100FBA00D12E083A0319302F7A3A03193B2F163AE1
:100FCA000319502F0A3A0319A12F3E3A0319AB2FDE
:100FDA00BE2F1F2E0A128A110028FD01831320300A
:100FEA00840042300A128A114D250A128A1183019D
:060FFA000A128A11CB2D42
:08400000FF3FFF3FFF3FFF3FC0
:02400E00FD3F74
:00000001FF
